:020000040800F2
:10000000602C002029020008312A0008DD220008A7
:100010002D2A000841060008613200080000000097
:100020000000000000000000000000009101000836
:100030004506000800000000D5010008712D0008E9
:10004000430200084302000843020008430200087C
:10005000430200084302000843020008430200086C
:10006000430200084302000843020008430200085C
:10007000430200084302000843020008430200084C
:10008000430200084302000843020008430200083C
:10009000430200084302000843020008430200082C
:1000A000430200084302000843020008430200081C
:1000B000F92D00084302000843020008430200082B
:1000C00043020008430200084302000843020008FC
:1000D00043020008430200085132000843020008AE
:1000E00043020008430200084302000800F002F83F
:1000F00000F03FF80AA090E8000C82448344AAF183
:100100000107DA4501D100F034F8AFF2090EBAE880
:100110000F0013F0010F18BFFB1A43F0010318473B
:10012000C4430000E4430000103A24BF78C878C1FB
:10013000FAD8520724BF30C830C144BF04680C60ED
:10014000704700000023002400250026103A28BF35
:1001500078C1FBD8520728BF30C148BF0B60704739
:10016000642900F0C980002070471FB51FBD10B57D
:1001700010BD00F0EEF91146FFF7F7FF03F08EF81F
:1001800000F00CFA03B4FFF7F2FF03BC00F014FA1E
:10019000224B19680868B0E8F00F80F30988BFF3B4
:1001A0006F8F4FF0000080F311884EF00D0E7047F6
:1001B0000000000006480068006880F3088862B606
:1001C00061B6BFF34F8FBFF36F8F00DF00BF00BF7B
:1001D00008ED00E0EFF30980BFF36F8F0F4B1A6853
:1001E00020E9F00F106008B54FF0500080F311883F
:1001F000BFF34F8FBFF36F8F03F034FD4FF000005C
:1002000080F31188BDE8084019680868B0E8F00F6D
:1002100080F30988BFF36F8F704700BF280000206C
:10022000EFF3058070470000094880470948004700
:10023000FEE7FEE7FEE7FEE7FEE7FEE7FEE7FEE796
:10024000FEE7FEE704480549054A064B70470000F3
:10025000F52D0008ED00000860260020602C00202D
:1002600060280020602800200FB41CB5074B06AAA8
:100270007B4469460090059800F053F900206946D8
:1002800000F062F91CBC5DF814FB0000D502000010
:100290002DE9F0410E460446002020622046E16828
:1002A000884730B3252805D0D4E901219047206A3A
:1002B000401CF2E7E168204600278847050018D077
:1002C000A5F14100192802D820354FF400673246C5
:1002D000294620462760FFF743FF40B1012804D09C
:1002E000F61D26F007060836D8E7361DD6E728465D
:1002F000DAE7206ABDE8F0812DE9F04106460024E6
:1003000010687529314616A510D0AFF3008000287B
:1003100002DA404213A507E031688A0701D512A529
:1003200002E0490704D511A5012401E0AFF30080E4
:1003300000210A2206F1240709E0B0FBF2FCB0FB21
:10034000F2F302FB1C00303078541846491C002898
:10035000F3D123462A463046BDE8F04100F083B889
:10036000000000002D0000002B0000002000000015
:1003700010B5431C02E010F8011B71B18107FAD1DE
:100380004FF0013202C88C1A8C4314EAC211F9D022
:10039000C01A0A0603D0C01E10BDC01A10BD0A0440
:1003A00001D0801E10BD0902FCD0401E10BD10B54A
:1003B000203AC0F00B80B1E81850203AA0E818505D
:1003C000B1E81850A0E81850BFF4F5AF5FEA027C1E
:1003D00024BFB1E81850A0E8185044BF18C918C08D
:1003E000BDE810405FEA827C24BF51F8043B40F82E
:1003F000043B08BF7047D20728BF31F8023B48BF13
:1004000011F8012B28BF20F8023B48BF00F8012B50
:1004100070474FF0000200B51346944696462039C7
:1004200022BFA0E80C50A0E80C50B1F12001BFF4AD
:10043000F7AF090728BFA0E80C5048BF0CC05DF813
:1004400004EB890028BF40F8042B08BF704748BF61
:1004500020F8022B11F0804F18BF00F8012B7047D5
:100460007047704770472DE9F0470D469946924610
:10047000044600F124080168880604D5E06921F0EB
:100480001001216000E00120A84201DD471B00E0CF
:100490000027A1697A1902EB0900081AA0612078E7
:1004A000C00602D42046AFF30080002608E0D4E95D
:1004B00001211AF806009047206A401C761C206231
:1004C0004E45F4DB2078C0060AD52046AFF3008005
:1004D00006E0D4E9012130209047206A401C2062C8
:1004E000381EA7F10107F4DC07E0D4E9012118F870
:1004F00005009047206A401C2062281EA5F10105D6
:10050000F3DC2046AFF300802078000602D50220FD
:10051000BDE8F0870120FBE701694A1C0261087809
:10052000704700B58FB0CDE9013100210591054933
:100530007944CDE9031011466846FFF7A9FE0FB0D4
:1005400000BD0000E5FFFFFF0A6802F8010B0A602A
:100550007047754600F02CF8AE46050069465346D4
:1005600020F00700854618B020B5FFF76BFEBDE808
:1005700020404FF000064FF000074FF000084FF00A
:10058000000B21F00701AC46ACE8C009ACE8C0099B
:10059000ACE8C009ACE8C0098D46704710B5044608
:1005A000AFF300802046BDE81040FFF7EBBD000030
:1005B000004870470026002001491820ABBEFEE726
:1005C00026000200704700001CB501200190642045
:1005D000012301AA46210090014800F013FD1CBD33
:1005E000E40300203EB5002002902020019064200A
:1005F000012301AA462100900F4800F003FDB4201A
:1006000000F0A8F86420022302AA462100900A48BC
:1006100000F042FB9DF809109DF8082041EA0220F5
:1006200003F07AFE0546054903F094FD044603F005
:1006300053FE80B23EBD0000E40300209A99993F2A
:1006400000BFFEE7704772B600BFFEE7014600221A
:1006500091F82100022808D00420886300BF002000
:1006600081F8200000BF012070470868006820F072
:100670000E000B6818600868006820F001000B6825
:10068000186091F8403001209840CB6B58600120F1
:1006900081F8210000BF002081F8200000BF104633
:1006A000E2E7000070B50446002594F82100022816
:1006B00003D00420A063012548E02068006820F0F2
:1006C0000E00216808602068006820F001002168A1
:1006D00008601F492068884201D1012026E01C499A
:1006E00014312068884201D110201FE018492831B8
:1006F0002068884201D1801518E015493C312068F6
:10070000884201D1801411E011495031206888429B
:1007100002D14FF4803009E00D49643120688842ED
:1007200002D14FF4801001E04FF080700849083981
:100730004860012084F8210000BF002084F82000D8
:1007400000BF606B10B12046616B8847284670BDC2
:100750000800024070B5044600F0B0F90646254690
:10076000681C10B104480078054400BF00F0A6F9E9
:10077000801BA842FAD370BD200000202DE9F84765
:100780000346002294466EE14FF0010808FA02F495
:10079000D1F8008008EA0400A0427DD1DFF8DCA295
:1007A000D1F80480A8EB0A09D0453AD014DCB8F19E
:1007B000030F50D009DCB8F1000F31D0B8F1010FB0
:1007C0001CD0B8F1020F49D120E0B8F1110F18D0B8
:1007D000B8F1120F42D11EE0B9F5881F25D006DC12
:1007E000B9F5803F20D0B9F5801F37D11AE0B9F5AF
:1007F000001F18D0B9F5041F30D117E0D1F80CC094
:100800002DE0D1F80C8008F1040C28E0D1F80C8020
:1008100008F1080C23E0D1F80C8008F10C0C1EE064
:1008200000BF00BF00BF00BF00BF00BFD1F80880FD
:10083000B8F1000F02D14FF0040C0BE0D1F80880A2
:10084000B8F1010F03D14FF0080C1C6102E04FF02A
:10085000080C5C6103E04FF0000C00E000BF00BF3B
:10086000FF2801D8984601E003F104084646FF2816
:1008700002D84FEA820803E0A2F108084FEA88088C
:100880004746D6F800804FF00F0909FA07F928EA21
:1008900009080CFA07F900E088E048EA0908C6F8F8
:1008A0000080D1F8048008F08058B8F1805F7DD1D5
:1008B00000BFDFF8CC81D8F8188048F00108DFF8D5
:1008C000C091C9F81880C846D8F8188008F0010807
:1008D000CDF8008000BF00BF4FEAB9384FEA920957
:1008E00058F829504FEA82784FEA18794FF00F08EC
:1008F00008FA09F825EA0805DFF88881434502D19E
:100900004FF0000816E0DFF88081434502D14FF038
:1009100001080FE0DFF87481434502D14FF002086F
:1009200008E0DFF86C81434502D14FF0030801E095
:100930004FF004084FEA82794FEA197908FA09F86A
:1009400048EA0505DFF84C814FEA920948F829503A
:10095000D1F8048008F48018B8F5801F0AD1DFF8B8
:100960003881D8F8008048EA0008DFF82C91C9F8EF
:10097000008009E0DFF82081D8F8008028EA00082C
:10098000DFF81491C9F80080D1F8048008F4001849
:10099000B8F5001F10D1DFF8008108F10408D8F87D
:1009A000008048EA0008DFF8F09000E05AE009F122
:1009B0000409C9F800800DE0DFF8DC8008F10408C4
:1009C000D8F8008028EA0008DFF8CC9009F1040983
:1009D000C9F80080D1F8048008F40038B8F5003F69
:1009E0000ED1DFF8B480A8F10408D8F8008048EAF6
:1009F0000008DFF8A490A9F10409C9F800800DE00F
:100A0000DFF89480A8F10408D8F8008028EA0008EC
:100A1000DFF88490A9F10409C9F80080D1F80480B6
:100A200008F48038B8F5803F0ED1DFF86C80A8F16B
:100A30000808D8F8008048EA0008DFF85C90A9F1BF
:100A40000809C9F800800DE0DFF84C80A8F108081B
:100A5000D8F8008028EA0008DFF83C90A9F10809DE
:100A6000C9F80080521CD1F8008028FA02F8B8F1C9
:100A7000000F7FF489AEBDE8F88700000000111078
:100A80000010024000080140000C0140001001402D
:100A900000140140080001400804014010B5C2687C
:100AA00021EA020302EA010443EA0443036110BDA0
:100AB0000AB1016101E00B0403617047014800685D
:100AC000704700001800002070B504460CB90120E2
:100AD00070BD94F83D0028B9002084F83C00204601
:100AE00000F048FB242084F83D002068006820F0D6
:100AF0000100216808602068006840F40040216817
:100B000008602068006820F400402168086000F058
:100B100065FD05465C496068884206D85B488542A9
:100B200001D2012007E0002005E05948854201D2AA
:100B3000012000E00020012800D1C9E75548B5FB9D
:100B4000F0F62068406820F03F003043216848609C
:100B50004D496068884201D8701C07E04FF49670D8
:100B600070434FF47A71B0FBF1F0401C2168096AC0
:100B700021F03F01084321680862434960688842C8
:100B800014D8681E61684900B0FBF1F0401CC0F346
:100B90000B00042801D204203DE0681E6168490072
:100BA000B0FBF1F0401CC0F30B0034E0A06838B992
:100BB000681E616801EB4101B0FBF1F0401C0AE0E6
:100BC000681E616801EBC10202EB0111B0FBF1F09C
:100BD000401C40F48040C0F30B0008B901201AE02B
:100BE000A06848B9681E616801EB4101B0FBF1F0F3
:100BF000401CC0F30B000CE0681E616801EBC102F1
:100C000002EB0111B0FBF1F0401CC0F30B0040F40B
:100C1000804040F400402168C9694CF6FF7291435E
:100C200008432168C861D4E90701084321680968BD
:100C300021F0C001084321680860D4E9031008438B
:100C40002168896848F2FF3291430843216888602F
:100C5000D4E9050108432168C96821F0FF01084370
:100C60002168C8602068006840F0010021680860C1
:100C700000202064202084F83D000020206384F8B8
:100C80003E0000BF24E70000A086010080841E0013
:100C900000093D0040420F002DE9FC47044689460B
:100CA000174698460A9E00200190FFF707FF054669
:100CB00094F83D0020286FD119230122CD49204608
:100CC000009501F05CFC10B10220BDE8FC8700BF7C
:100CD00094F83C00012801D10220F6E7012084F8B5
:100CE0003C0000BF2068006800F0010028B92068BF
:100CF000006840F00100216808602068006820F466
:100D0000006021680860222084F83D00102084F8EB
:100D10003E00002020646762A4F82A80608D208550
:100D2000B548E0622B4632464946204601F0F8FAC3
:100D300008B10120C9E7208D88B900BF00200090CC
:100D400020684069009020688069009000BF00BF63
:100D50002068006840F40070216808604BE0208D36
:100D600001281AD12068006820F48060216808609A
:100D700072B600BF00200090206840690090206893
:100D80008069009000BF00BF2068006840F40070D8
:100D90002168086062B62EE029E1208D022819D171
:100DA0002068006840F400602168086072B600BFE7
:100DB00000200090206840690090206880690090C1
:100DC00000BF00BF2068006820F4806021680860D0
:100DD00062B610E02068006840F480602168086016
:100DE00000BF002000902068406900902068806962
:100DF000009000BF00BFEBE0208D03287ED8208D3F
:100E0000012815D12A463146204601F094FC08B14C
:100E100001205AE720680069616A0870606A401C16
:100E20006062208D401E2085608D401E6085CFE071
:100E3000208D02282CD1334600227049204600958F
:100E400001F09DFB08B101203FE772B62068006801
:100E500040F400702168086020680069616A0870C9
:100E6000606A401C6062208D401E2085608D401E9F
:100E7000608562B620680069616A0870606A401C1B
:100E80006062208D401E2085608D401E60859FE041
:100E90003346002259492046009501F070FB08B105
:100EA000012012E72068006820F480602168086053
:100EB00072B620680069616A0870606A401C6062EE
:100EC000208D401E2085608D401E60854C48006846
:100ED0001921B0FBF1F04FF47A71B0FBF1F0C0EBE7
:100EE000C00000EB8000019000BF0198401E0190FF
:100EF0000198A8B900202063202000E038E084F8A1
:100F00003D00002084F83E00206C40F0200020646A
:100F100062B600BF002084F83C0000BF0120D4E688
:100F200020684069C0F380000028DED02068006897
:100F300040F400702168086020680069616A0870E8
:100F4000606A401C6062208D401E2085608D401EBE
:100F5000608562B620680069616A0870606A401C3A
:100F60006062208D401E2085608D401E60852FE0D0
:100F70002A463146204601F0DEFB08B10120A4E6F6
:100F800020680069616A0870606A401C6062208D98
:100F9000401E2085608D401E608520684069C0F33A
:100FA0008000A8B1208D032805D12068006820F4B6
:100FB00080602168086020680069616A0870606A62
:100FC000401C6062208D401E2085608D401E608523
:100FD000208D00287FF410AF202084F83D000020F1
:100FE00084F83E0000BF84F83C0000BF6DE602209C
:100FF0006BE60000020010000000FFFF040001008B
:10100000240000202DE9F8430446894616461F4671
:10101000DDF82080FFF752FD054694F83D002028BA
:101020007ED11923012251492046009501F0A7FAEB
:1010300010B10220BDE8F88300BF94F83C000128FD
:1010400001D10220F6E7012084F83C0000BF2068AF
:10105000006800F0010028B92068006840F0010035
:10106000216808602068006820F40060216808603A
:10107000212084F83D00102084F83E0000202064E8
:1010800066626785608D20853948E0622B4642465E
:101090004946204601F0E0F908B10120CAE700BF47
:1010A00000200090206840690090206880690090CE
:1010B00000BF00BF44E02A464146204601F080FBC5
:1010C00050B1206C042805D12068006840F40070FD
:1010D000216808600120ADE7606A00782168086136
:1010E000606A401C6062608D401E6085208D401EDD
:1010F000208520684069C0F3800070B1208D60B108
:10110000606A007821680861606A401C6062608DD6
:10111000401E6085208D401E20852A46414600E005
:1011200022E0204601F0F8F950B1206C042805D1E6
:101130002068006840F4007021680860012079E7A9
:10114000208D0028B7D12068006840F40070216825
:101150000860202084F83D00002084F83E0000BF95
:1011600084F83C0000BF65E7022063E7020010003E
:101170000000FFFF10B586B00446002002900390E7
:101180000490059016492068884226D100BF154872
:10119000806940F00800134988610846806900F0C2
:1011A0000800019000BF00BF4FF440600290122081
:1011B00003900320059002A90B48FFF7DFFA00BF58
:1011C0000848C06940F480000649C8610846C06903
:1011D00000F48000019000BF00BF06B010BD000009
:1011E0000058004000100240000C01400348006815
:1011F0000349097808440149086070471800002035
:101200002000002010B50848006840F01000064992
:101210000860032000F0E0F80F2000F007F800F06D
:101220005DF8002010BD0000002002402DE9F041D3
:1012300088B004460027B846002600BF2348C0698E
:1012400040F001002149C8610846C06900F0010072
:10125000019000BF00BF02A903A800F097F9069F04
:101260001FB900F0BBF9054602E000F0B7F94500F0
:101270001748B5FBF0F0A0F101084FF08040154988
:10128000086040F2E7311348C160C0F804800021D3
:1012900001618160816100F02DFC064696B90D4820
:1012A00000F05CFC06466EB91C2000F047F8102CDC
:1012B00007D2002221461C2000F050F806480460A6
:1012C00000E00126304608B0BDE8F0810010024081
:1012D00040420F00C80400201C00002008B500BFD9
:1012E0001448806940F0010012498861084680690D
:1012F00000F00100009000BF00BF00BF0846C069B9
:1013000040F08050C8610846C06900F080500090ED
:1013100000BF00BF00220F21901E00F01FF800BF89
:101320000549486820F0E06040F00070486000BF68
:1013300008BD0000001002400000014001460846C0
:10134000002809DB00F01F0301229A4043099B009B
:1013500003F1E023C3F8002100BF70472DE9F05FDF
:1013600080460D461646002701F07CFF07463946A9
:101370002A46334601F00700C0F1070ABAF1040F0C
:1013800002D94FF0040A01E0C0F1070AD14600F18A
:10139000040ABAF1070F02D24FF0000A01E0A0F1EF
:1013A000030AD4464FF0010A0AFA09FAAAF1010A1F
:1013B0000AEA020A0AFA0CFA4FF0010B0BFA0CFBCC
:1013C000ABF1010B0BEA030B4AEA0B042146404642
:1013D00001F050FFBDE8F09F00BF00F00702064B90
:1013E00019684FF6FF031940044B0B4343EA0221EF
:1013F000014B196000BF70470CED00E00000FA05DA
:1014000070B504460D460CB9012070BD5A480068FD
:1014100000F00700A8420ED25748006820F00700ED
:101420002843554908600846006800F00700A842B4
:1014300001D00120E9E7207800F0020002281DD148
:10144000207800F00400042805D14C48406840F49E
:10145000E0604A494860207800F00800082805D17B
:101460004648406840F460504449486043484068FA
:1014700020F0F000A168084340494860207800F05F
:10148000010078B36068012806D13C48006800F488
:10149000003090B90120B8E76068022806D13748CB
:1014A000006800F0007040B90120AEE733480068E2
:1014B00000F0020008B90120A7E73048406820F09A
:1014C0000300616808432D494860FFF7F7FA0646B4
:1014D00009E0FFF7F3FA801B41F28831884202D914
:1014E000032092E707E02548406800F00C0061689F
:1014F000B0EB810FEDD12048006800F00700A84252
:101500000ED91D48006820F0070028431A490860DA
:101510000846006800F00700A84201D0012074E7E7
:10152000207800F00400042807D11448406820F413
:10153000E060E168084311494860207800F0080045
:10154000082808D10D48406820F46050216940EA1D
:10155000C1000A49486000F061F808494968C1F3D0
:101560000311074A515CC8400649086006480068F4
:10157000FFF75CFE002048E7002002400010024018
:101580007E440008240000201C0000200F2202607E
:101590000D4A526802F0030242600B4A526802F0A0
:1015A000F0028260084A526802F4E062C260064AB1
:1015B000526802F46052D2080261044A126802F0D2
:1015C00007020A607047000000100240002002403D
:1015D00001480068704700002400002000B5FFF7B4
:1015E000F7FF04494968C1F30221034A515CC8402E
:1015F00000BD0000001002408E44000800B5FFF757
:10160000E7FF04494968C1F3C221034A515CC8405D
:1016100000BD0000001002408E44000870B500219B
:101620000022002400230020134D696801F00C05FE
:10163000F5B1042D02D0082D19D101E00F4819E0B1
:101640000F4DC1F38346AB5D01F4803555B10A4DB2
:101650006D68C5F340450B4E725D084D5D43B5FBAB
:10166000F2F402E0084D03FB05F4204602E000BF5F
:10167000024800BF00BF70BD0010024000127A0097
:101680006C4400087C44000800093D00F8B504469D
:101690000CB90120F8BD207800F00100002878D0B6
:1016A000F848406800F00C0004280CD0F548406869
:1016B00000F00C00082811D1F248406800F4803096
:1016C000B0F5803F0AD1EF48006800F400300028F0
:1016D0005FD0606800285CD10120DBE700BF606854
:1016E000B0F5803F06D1E748006840F48030E54916
:1016F000086028E0606858B9E248006820F480304B
:10170000E04908600846006820F4802008601AE07C
:101710006068B0F5A02F0BD1DA48006840F4802053
:10172000D84908600846006840F4803008600AE044
:10173000D448006820F48030D24908600846006828
:1017400020F48020086000BF606888B1FFF7B6F918
:10175000054606E0FFF7B2F9401B642801D90320D3
:1017600098E7C848006800F400300028F2D010E084
:10177000FFF7A4F9054606E0FFF7A0F9401B64282F
:1017800001D9032086E7BF48006800F40030002834
:10179000F2D1207800F00200022857D1B948406801
:1017A00000F00C0050B1B748406800F00C00082869
:1017B00018D1B448406800F4803098B9B148006846
:1017C00000F0020020B12069012801D0012061E76A
:1017D000AC48006820F0F800616940EAC100A949FE
:1017E000086033E02069E8B10120A7490860FFF7ED
:1017F00065F9054606E0FFF761F9401B022801D9AB
:10180000032047E79F48006800F002000028F2D05C
:101810009C48006820F0F800616940EAC1009949DD
:10182000086013E0002098490860FFF747F9054673
:1018300006E0FFF743F9401B022801D9032029E7FE
:101840009048006800F002000028F2D1207800F0F3
:10185000080008282DD1A069B8B101208B49086083
:10186000FFF72CF9054606E0FFF728F9401B022890
:1018700001D903200EE78348406A00F002000028E7
:10188000F2D0012001F0D6F813E000207F49086073
:10189000FFF714F9054606E0FFF710F9401B022890
:1018A00001D90320F6E67748406A00F002000028DC
:1018B000F2D1207800F00400042873D10027714889
:1018C000C06900F0805070B900BF6E48C06940F038
:1018D00080506C49C8610846C06900F08050009093
:1018E00000BF00BF01276A48006800F48070B0B9EB
:1018F0006748006840F4807065490860FFF7DEF8CB
:10190000054606E0FFF7DAF8401B642801D90320FA
:10191000C0E65F48006800F480700028F2D000BF85
:10192000E068012806D15748006A40F00100554997
:10193000086227E0E06858B95248006A20F00100C8
:10194000504908620846006A20F00400086219E065
:10195000E06805280BD14B48006A40F00400494973
:1019600008620846006A40F0010008620AE0454843
:10197000006A20F00100434908620846006A20F02E
:101980000400086200BFE068A0B1FFF797F80546C1
:1019900009E0FFF793F8401B41F28831884202D9F1
:1019A000032077E622E03748006A00F002000028B2
:1019B000EFD012E0FFF782F8054608E0FFF77EF867
:1019C000401B41F28831884201D9032062E62D484C
:1019D000006A00F002000028F0D1012F05D129484B
:1019E000C06920F080502749C86100BFE069C8B3D2
:1019F0002448406800F00C00082860D0E069022804
:101A000048D1002020490866FFF758F8054606E04F
:101A1000FFF754F8401B022801D903203AE6194881
:101A2000006800F000700028F2D1206AB0F5803F15
:101A300007D11448406820F40030A16808431149D8
:101A40004860D4E9080108430E49496821F474113B
:101A500008430C49486001200B490866FFF72EF83F
:101A6000054607E03DE0FFF729F8401B022801D9B1
:101A700003200FE60348006800F000700028F2D051
:101A80002FE0000000100240000042428004424269
:101A900000700040002014490866FFF70FF8054663
:101AA00006E0FFF70BF8401B022801D90320F1E5FF
:101AB0000E48006800F000700028F2D111E0E069E3
:101AC000012800D1E6E50948466806F48031206A1D
:101AD000814204D106F47011606A814201D0012074
:101AE000D8E50020D6E50000000042420010024088
:101AF0007047704710B504460CB9012010BD94F82A
:101B00003D0028B9002084F83C00204600F025F86C
:101B1000022084F83D00211D206801F075F90120A4
:101B200084F8460000BF84F83E0001213F200155A3
:101B3000402001554120015500BF00BF012084F81D
:101B4000420043200155442001554520015500BF66
:101B5000012084F83D000020D0E77047014691F84D
:101B60003D00012801D001207047022081F83D008E
:101B70000868C06840F001000B68D860124B086824
:101B800098420BD00868B0F1804F07D00F4B08681F
:101B9000984203D00E4B086898420CD108688068C0
:101BA00000F00702062A0CD00868006840F0010027
:101BB0000B68186005E00868006840F001000B68D9
:101BC00018600020D0E70000002C01400004004015
:101BD00000080040704770B504462068C56820685A
:101BE000066906F00200022819D105F00200022859
:101BF00015D1401F21680861012020772068806985
:101C000000F0030018B12046FFF7E4FF05E020468E
:101C100000F097F8204600F095F80020207706F0B5
:101C20000400042819D105F00400042815D1C0438C
:101C300021680861022020772068806900F44070E4
:101C400018B12046FFF7C6FF05E0204600F079F8FE
:101C5000204600F077F80020207706F008000828DA
:101C600019D105F00800082815D1C0432168086182
:101C7000042020772068C06900F0030018B12046D6
:101C8000FFF7A8FF05E0204600F05BF8204600F0D3
:101C900059F80020207706F01000102819D105F01F
:101CA0001000102815D1C043216808610820207752
:101CB0002068C06900F4407018B12046FFF78AFF21
:101CC00005E0204600F03DF8204600F03BF80020FB
:101CD000207706F0010048B105F0010030B16FF047
:101CE000010021680861204600F02DF806F0800010
:101CF000802809D105F08000802805D1C0432168E3
:101D000008612046FFF7F4FE06F04000402809D1A4
:101D100005F04000402805D1C043216808612046F5
:101D200000F01AF806F02000202809D105F0200064
:101D3000202805D1C043216808612046FFF7D9FE5D
:101D400070BD7047704710B504462068B0F1804FF1
:101D500001D1FFF74BFA10BD704770477047000084
:101D60002DE9F84F0446206805682068C668206899
:101D700047694FF00009CA4605F00F09B9F1000F95
:101D80000AD105F0200038B106F0200020B120462D
:101D900001F0CCF8BDE8F88FB9F1000F7BD007F067
:101DA000010018B906F49070002874D005F0010005
:101DB00030B106F4807018B1606C40F001006064CE
:101DC00005F0040030B107F0010018B1606C40F07C
:101DD0000200606405F0020030B107F0010018B1A4
:101DE000606C40F00400606405F0080048B106F043
:101DF000200010B907F0010018B1606C40F0080035
:101E00006064606C002845D005F0200028B106F021
:101E1000200010B1204601F089F820684069C0F325
:101E2000801A606C00F0080010B9BAF1000F2CD0D5
:101E3000204601F035F82068406900F0400000B30A
:101E400000BF00BF2168143151E8001F21F040009D
:101E50002168143141E80002002AF3D100BFE06B91
:101E600050B17748E16B4863E06BFEF71BFC88B12B
:101E7000E06B416B88470DE02046FFF76FFF09E0FC
:101E800009E02046FFF76AFF04E02046FFF766FFFF
:101E9000002060647EE7206B012877D105F01000F8
:101EA000002873D006F010000028FAD000BF0020F0
:101EB000009020680068009020684068009000BF93
:101EC00000BF2068406900F0400000285FD0E06B50
:101ED000006840681FFA80F8B8F1000F55D0A08D57
:101EE000404552DDA4F82E80E06B8069202843D065
:101EF00000BF00BF21680C3151E8001F21F4807041
:101F000021680C3141E80002002AF3D100BF00BF74
:101F100000BF2168143151E8001F21F00100216841
:101F2000143141E80002002AF3D100BF00BF00BF16
:101F30002168143151E8001F21F04000216814315C
:101F400041E80002002AF3D100BF202084F84200BB
:101F50000020206300BF00BF21680C3151E8001F42
:101F600021F0100021680C3141E80002002AF3D171
:101F700000BFE06BFEF76AFB02206063A08DE28D7C
:101F8000801A81B22046FFF7E8FE03E742E0A08D09
:101F9000E18D401A1FFA80F8E08DD0B3B8F1000F40
:101FA00037D000BF00BF21680C3151E8001F21F479
:101FB000907021680C3141E80002002AF3D100BF83
:101FC00000BF00BF2168143151E8001F21F001005B
:101FD0002168143141E80002002AF3D100BF20201B
:101FE00084F842000020206300BF00BF21680C314C
:101FF00051E8001F21F0100021680C3141E8000277
:10200000002AF3D100BF0220606341462046FFF75B
:10201000A4FEBFE605F0800030B106F0800018B1E4
:10202000204601F09FF8B5E605F0400030B106F01B
:10203000400018B1204600F069FFABE600BFA9E6FA
:102040008D2E000810B504460CB9012010BDA06902
:1020500000B100E000BF94F8410028B9002084F8E6
:102060004000204600F02AF8242084F8410020682F
:10207000C06820F400502168C860204600F0D4FFFA
:102080002068006920F49040216808612068406958
:1020900020F02A00216848612068C06840F40050A0
:1020A0002168C86000206064202084F8410084F822
:1020B00042000020606300BFC8E7000010B586B092
:1020C0000446002002900390049005903749206850
:1020D00088422FD100BF3648806940F4804034499F
:1020E00088610846806900F48040019000BF00BF0D
:1020F00000BF0846806940F0040088610846806996
:1021000000F00400019000BF00BF481502900220BB
:1021100003900320059002A92648FEF72FFB4FF4F9
:102120008060029000200390049002A92148FEF7ED
:1021300025FB39E020492068884235D100BF1C4882
:10214000C06940F400301A49C8610846C06900F40B
:102150000030019000BF00BF00BF0846806940F01A
:10216000040088610846806900F00400019000BF07
:1021700000BF04200290022003900320059002A9D2
:102180000C48FEF7FBFA0820029000200390049010
:1021900002A90848FEF7F2FA002205212620FFF7DF
:1021A000DDF82620FFF7CAF806B010BD0038014060
:1021B00000100240000801400044004070B5044691
:1021C0000D46164694F8420020280BD105B10EB9F1
:1021D000012070BD0020206332462946204600F0D1
:1021E000A1FFF6E70220F4E710B50446074920688E
:1021F00088420AD1642301220549064800F00EF8FE
:10220000012203490448FFF7D9FF10BD00440040F4
:102210009000002038040020800400202DE9F84FB1
:1022200004460E46174699464FF0000A94F84100BE
:10223000202850D106B117B90120BDE8F88F002041
:102240006064212084F84100FEF738FC8246A784B0
:10225000E784A068B0F5805F04D1206910B900253B
:10226000B04602E035464FF000081EE0534600221B
:1022700080212046CDF8009000F0A4FF20B120205E
:1022800084F841000320D8E745B9B8F80000C0F34E
:1022900008002168486008F1020803E028782168F6
:1022A00048606D1CE08C401EE084E08C0028DDD18D
:1022B0005346002240212046CDF8009000F082FFD6
:1022C00020B1202084F841000320B6E7202084F8C4
:1022D00041000020B1E70220AFE7704700BFFEE7F2
:1022E000014608684069C0F38020B0B16FF4806097
:1022F0000A68506100200863202081F83D0000201A
:1023000081F83E00086C40F00400086400BF002023
:1023100081F83C0000BF012070470020FCE700006E
:102320002DE9F84304460D4690461E46E76A2068AC
:10233000006840F4806021680860082F04D0012FF5
:1023400002D017F5803F06D12068006840F4807005
:102350002168086008E0206B112805D1206800681A
:1023600040F4807021680860434600224FF001115C
:102370002046009600F003F960B12068006800F480
:102380008070B0F5807F02D14FF40070206403208C
:10239000BDE8F8832069B0F5804F05D1E8B240F080
:1023A00001002168086149E005F44070F02141EA2C
:1023B000E01021680861334642462649204600F075
:1023C0003DF908B10120E3E7E8B22168086133462E
:1023D00042462049891F204600F030F908B101200B
:1023E000D6E700BF00200090206840690090206878
:1023F0008069009000BF00BF2068006840F48070D2
:1024000021680860434600224FF0011120460096E3
:1024100000F0B5F858B12068006800F48070B0F59D
:10242000807F02D14FF4007020640320B0E705F4F0
:102430004070F12141EAE0102168086133464246CC
:102440000449891F204600F0F9F808B101209FE7F0
:1024500000209DE7080001002DE9F84304460D46E1
:1024600017469846E66A082E04D0012E02D016F5CB
:10247000803F06D12068006840F4807021680860C1
:1024800008E0206B122805D12068006840F48070B5
:10249000216808603B4600224FF001112046CDF82C
:1024A000008000F06CF860B12068006800F4807073
:1024B000B0F5807F02D14FF4007020640320BDE8A6
:1024C000F8832069B0F5804F04D105F0FE00216843
:1024D000086112E005F44070F02141EAE010216843
:1024E000086143463A460B49204600F0A7F808B178
:1024F0000120E4E7E8B22168086143463A4605490D
:10250000891F204600F09AF808B10120D7E7002083
:10251000D5E700000800010070B504460D461646D8
:1025200025E02046FFF7DCFE08B1012070BD681CE5
:10253000E8B1FEF7C3FA801BA84200D8BDB92068F5
:102540004069C0F3800090B900202063202084F807
:102550003D00002084F83E00206C40F02000206404
:1025600000BF002084F83C0000BF0120DEE72068A7
:102570004069C0F380000028D3D00020D6E72DE9C1
:10258000F04104460D4617461E46DDF8188038E037
:10259000701CA8B3FEF792FAA0EB0800B04200D876
:1025A00076BBC5F3074001280AD120684069A9B26B
:1025B0000840A9B2884201D101200BE0002009E0C7
:1025C00020688069A9B20840A9B2884201D10120DF
:1025D00000E00020B84214D100202063202084F8BD
:1025E0003D00002084F83E00206C40F02000206474
:1025F00000BF002084F83C0000BF0120BDE8F0814E
:10260000FFE7C5F3074001280AD120684069A9B255
:102610000840A9B2884201D101200BE0002009E066
:1026200020688069A9B20840A9B2884201D101207E
:1026300000E00020B842ABD00020DFE72DE9F041F8
:1026400004460D4616461F4658E020684069C0F310
:102650008020E8B12068006840F4007021680860BC
:102660006FF480602168486100202063202084F896
:102670003D00002084F83E00206C40F004002064FF
:1026800000BF002084F83C0000BF0120BDE8F081BD
:10269000701C90B3FEF712FAC01BB04200D866BBA4
:1026A000C5F3074001280AD120684069A9B2084053
:1026B000A9B2884201D101200BE0002009E0206886
:1026C0008069A9B20840A9B2884201D1012000E086
:1026D000002090B900202063202084F83D000020D5
:1026E00084F83E00206C40F02000206400BF0020F1
:1026F00084F83C0000BF0120C8E7FFE7C5F30740AE
:1027000001280AD120684069A9B20840A9B28842CC
:1027100001D101200BE0002009E020688069A9B206
:102720000840A9B2884201D1012000E00020002821
:102730008BD00020AAE770B504460D46164637E058
:1027400020684069C0F30010A0B16FF0100021684C
:10275000486100202063202084F83D00002084F898
:102760003E00206C206400BF002084F83C0000BFC5
:10277000012070BDFEF7A2F9801BA84200D8BDB9A8
:1027800020684069C0F3801090B9002020632020A9
:1027900084F83D00002084F83E00206C40F02000CA
:1027A000206400BF002084F83C0000BF0120E0E767
:1027B00020684069C0F380100028C1D00020D8E70D
:1027C00070B504460D46164625E02046FFF788FD05
:1027D00008B1012070BD681CE8B1FEF76FF9801BDD
:1027E000A84200D8BDB920684069C0F3C01090B9B4
:1027F00000202063202084F83D00002084F83E0063
:10280000206C40F02000206400BF002084F83C00D1
:1028100000BF0120DEE720684069C0F3C010002837
:10282000D3D00020D6E7000000B5A3B01C22204979
:102830001CA8FDF7BCFD00211CA800F059FD1D4996
:1028400008601C221A491C3115A8FDF7B0FD0021B3
:1028500015A800F04DFD184908601C2214493831B4
:102860000EA8FDF7A4FD00210EA800F041FD1349BC
:1028700008601C220E49543107A8FDF798FD00217D
:1028800007A800F035FD0E4908601C220849703188
:102890006846FDF78CFD0021684600F029FD0949D6
:1028A0000860012208490948FFF788FC23B000BDF1
:1028B000E043000804000020080000200C00002075
:1028C0001000002014000020900000208004002050
:1028D00000B585B00020019002900390049000BFE5
:1028E0002448806940F020002249886108468069B8
:1028F00000F02000009000BF00BF00BF08468069C4
:1029000040F0040088610846806900F004000090EF
:1029100000BF00BF00BF0846806940F00800886122
:102920000846806900F00800009000BF00BF012247
:1029300011461148FEF7BCF8002220210F48FEF78F
:10294000B7F801200190029000200390022004902B
:1029500001A90948FDF712FF2020019001200290F3
:10296000002003900220049001A90448FDF706FF0F
:1029700005B000BD0010024000080140000C0140FD
:1029800010B50B480B4908600B4848600021094806
:102990008160C1604FF4804101610021416181612A
:1029A000C1610162FEF790F808B1FDF74CFE10BD61
:1029B00000580040E4030020A086010010B50B4839
:1029C0000B4908604FF4E1304860002108488160FD
:1029D000C16001610C21416100218161C161FFF78A
:1029E00031FB08B1FDF72FFE10BD0000003801409B
:1029F0003804002010B50B480B4908604FF4E13053
:102A00004860002108488160C16001610C2141617A
:102A100000218161C161FFF715FB08B1FDF713FECD
:102A200010BD0000004400408004002000BFFEE70D
:102A300000BFFEE708B508490968C9084FF47A7273
:102A4000B1FBF2F14143009100BF00BF00994A1E63
:102A500000920029F9D108BD2400002000BF2148C0
:102A60000088052814DA01211F48FEF717F8002214
:102A700020211E48FEF71CF81E2000F028FC012231
:102A800020211A48FEF714F8C82000F020FCE6E7E1
:102A900014480088B0F5167F14DD01211248FDF7B7
:102AA000FDFF002220211148FEF702F81E2000F051
:102AB0000EFC012220210D48FDF7FAFFC82000F08E
:102AC00006FCCCE7012211460748FDF7F1FF012281
:102AD00020210648FDF7ECFF4FF4FA7000F0F7FBF9
:102AE000BDE700000000002000080140000C01408C
:102AF000FDF76AFD00BFFDF775FD034908804FF43F
:102B00007A7000F0E4FBF6E70000002090B000BF10
:102B10000A4802880AA16846FDF7A6FB6846FDF749
:102B200027FC84B26423224669460948FFF776FBF6
:102B30004FF47A7000F0CBFBEAE7000000000020C1
:102B40004C696768743A202564206C75780D0A001A
:102B50003804002000BF4FF47A7000F0B8FBFAE7A9
:102B6000A0B04FF4FA6000F0B2FB53A16846FDF745
:102B70007BFB6846FDF7FCFB84B264232246694672
:102B80004F48FFF74BFB4FF47A7000F0A0FB4DA1CC
:102B90006846FDF769FB6846FDF7EAFB84B26423EB
:102BA000224669464648FFF739FB4FF47A7000F039
:102BB0008EFB46A16846FDF757FB6846FDF7D8FB3C
:102BC00084B26423224669463D48FFF727FB4FF451
:102BD000FA6000F07CFB41A16846FDF745FB6846C2
:102BE000FDF7C6FB84B26423224669463448FFF7EA
:102BF00015FB40F6B83000F06AFB3BA16846FDF7D4
:102C000033FB6846FDF7B4FB84B264232246694671
:102C10002B48FFF703FB4FF4FA5000F058FB3CA1A0
:102C20006846FDF721FB6846FDF7A2FB84B26423EA
:102C3000224669462248FFF7F1FA4FF47A7000F015
:102C400046FB37A16846FDF70FFB6846FDF790FB92
:102C500084B26423224669461948FFF7DFFA40F63A
:102C6000B83000F034FB00BF102238A16846FDF7F1
:102C7000FBFA6846FDF77CFB84B264232246694672
:102C80000F48FFF7CBFA642000F021FB334802889D
:102C900033A16846FDF7E8FA6846FDF769FB84B2A0
:102CA0006423224669460648FFF7B8FA4FF4FA60F3
:102CB00000F00DFBD8E7000041540D0A00000000B1
:102CC00080040020415445300D0A000041542B433C
:102CD000574D4F44453D310D0A00000041542B52E1
:102CE00053540D0A0000000041542B43574A4150F1
:102CF0003D2269514F4F205A313020547572626F16
:102D00002B222C223132333435363738220D0A004B
:102D100041542B4349504D55583D300D0A00000099
:102D200041542B43495053544152543D2254435033
:102D3000222C223139322E3136382E39342E32328D
:102D400038222C383038310D0A00000041542B4312
:102D5000495053454E443D25640D0A0000000020B3
:102D60004C696768743A202564206C75780D0A00F8
:102D700010B500BF502080F31188BFF34F8FBFF311
:102D80006F8F00BF01F0C0F818B14FF080500449B8
:102D9000086000BF002080F3118800BF10BD000054
:102DA00004ED00E000B58FB0282105A8FDF731FB48
:102DB00014216846FDF72DFB0220059001200990A3
:102DC00010200A9000200C9005A8FEF75FFC08B1C7
:102DD000FDF739FC0F200090002001900290039035
:102DE000049000216846FEF70BFB08B1FDF72BFCB1
:102DF0000FB000BD7047000010B50248FEF7EBFEB3
:102E000010BD0000C804002010B502681C4B984299
:102E100008D0B0F1804F05D01A4B984202D01A4B1F
:102E2000984203D122F070024B681A43144B984227
:102E300008D0B0F1804F05D0124B984202D0124B0F
:102E4000984203D122F44072CB681A4322F08003E7
:102E50004C6943EA040202608B68C3620B688362B8
:102E6000074B984201D10B69036301234361036956
:102E700003F001031BB1036923F00103036110BDDB
:102E8000002C0140000400400008004070B50546D9
:102E90006C6A0020E085E0842046FEF75FFF70BD8D
:102EA00000BF00BF02680C3252E8002F22F490717C
:102EB00002680C3242E80013002BF3D100BF00BFC0
:102EC00000BF0268143252E8002F22F001010268AC
:102ED000143242E80013002BF3D100BF016B01292B
:102EE0000ED100BF00BF02680C3252E8002F22F062
:102EF000100102680C3242E80013002BF3D100BF2E
:102F0000202180F8421000210163704710B504466B
:102F10002068C06820F040002168C860202084F844
:102F200041002046FFF7D9F9002010BDF8B504464E
:102F300094F84200222875D1A068B0F5805F0CD1CA
:102F4000206950B90025A66A20684068C0F30800CF
:102F50003080A06A801CA06215E0A56A0026A068E7
:102F6000B0F5805F03D0A06828B9206918B920683F
:102F70004068287004E02068406800F07F002870F6
:102F8000A06A401CA062E08D401E80B2E08500284F
:102F900046D12068C06820F020002168C860206801
:102FA000C06820F480702168C8602068406920F003
:102FB000010021684861202084F8420000206063FD
:102FC000206B012826D10020206300BF00BF2168AC
:102FD0000C3151E8001F21F0100021680C3141E84C
:102FE0000002002AF3D100BF2068006800F0100042
:102FF00010280AD100BF00200090206800680090CF
:1030000020684068009000BF00BFA18D2046FEF7F9
:10301000A4FE02E02046FFF7E7F80020F8BD01E03B
:103020000020FBE70220F9E770B504462168096932
:1030300021F44051E2681143226811612269A168BC
:103040001143626941EA02052168C96841F20C62D4
:10305000914329432268D1602168496921F4407174
:10306000A2691143226851612D4A2168914202D11F
:10307000FEF7C4FA01E0FEF7B1FA00EBC00101EB84
:10308000001162689200B1FBF2F100EBC00202EBAA
:10309000001263689B00B2FBF3F26423B2FBF3F20D
:1030A00002EBC20303EB0212A1EB8201322202EB1C
:1030B00001116422B1FBF2F101F0F00100EBC0025A
:1030C00002EB001263689B00B2FBF3F26423B2FBD5
:1030D000F3F201EB021200EBC00101EB0011636897
:1030E0009B00B1FBF3F100EBC00303EB0013666838
:1030F000B600B3FBF6F36426B3FBF6F303EBC306AB
:1031000006EB0313A1EB8301322303EB01116423CC
:10311000B1FBF3F101F00F0111442268916070BD21
:103120000038014010B5034699629A85DA8500207F
:103130005864222083F84200186928B11868C068D2
:1031400040F480701C68E0601868406940F001003D
:103150001C6860611868C06840F020001C68E0606E
:10316000002010BD014691F84100212828D188682F
:10317000B0F5805F0BD1086948B90A6A1088C0F3BE
:1031800008000B685860086A801C086205E00B6A3A
:10319000581C086218780B685860C88C401E80B2B2
:1031A000C88458B90868C06820F080000B68D860EF
:1031B0000868C06840F040000B68D8600020704785
:1031C0000220FCE72DE9F84304460D4617469846D1
:1031D000089E31E0701C70B3FDF770FCA0EB080096
:1031E000B04200D816B90320BDE8F8832068C06853
:1031F00000F00400F8B1802D1ED0402D1CD02068B6
:103200000068C0F3C000B0B100BF0020009020688B
:103210000068009020684068009000BF00BF204612
:10322000FFF73EFE0820606400BF002084F84000E5
:1032300000BF0120D8E7FFE7206800682840A842C7
:1032400001D1012000E00020B842C3D00020CBE72C
:1032500010B50248FEF784FD10BD00008004002078
:1032600000BFFEE702480068C0F30220704700007C
:103270000CED00E010B5002804DB0A07130E054A28
:10328000135406E00A07140E034A00F00F031B1F35
:10329000D45410BD00E400E018ED00E0FDF7B2FFEB
:1032A000FFF780FDFFF714FBFFF76AFBFFF786FBD4
:1032B000FFF7A0FBFFF7B8FA00F015F800BFFEE734
:1032C00001460020842901D0CA1C1044704770B503
:1032D000044625460DB1294600E00121084600F0CC
:1032E00033FC002070BD10B500F05CFC002010BD68
:1032F0007FB504460D46606998B1A06988B1B4F9FC
:103300000800FFF7DDFF0646D4E90510CDE90061AE
:1033100002902B462269D4E9001000F097FD03903B
:1033200013E0B4F90800FFF7CBFF064603A8CDE988
:103330000060238A9AB22B46D4E9001000F054FDB5
:10334000012802D0002004B070BD0398FBE7000004
:103350002DE9F04105460E461C4807681C480068E8
:10336000001D00F0EDFA50B91948006890F82C10D3
:103370000120884017490968814316480160681C8C
:1033800038B936B112480168091D134800F022FB14
:103390001AE07C190E4800684460BC4207D20C4811
:1033A0000168091D0D48006800F0FAFA0CE00848B1
:1033B0000168091D0A48006800F0F2FA094800682F
:1033C000844201D207480460BDE8F0813C0000203F
:1033D0002800002040000020EC05002030000020E4
:1033E0002C0000205800002010B5044600F0FEFA22
:1033F00023480068401C224908602248006840B900
:10340000204804600846006801280DD100F03EF90C
:103410000AE01D48006838B91A480068C06AE16AC5
:10342000884201D81748046018480068401C1749B2
:10343000086094F82C100120884015490968084359
:1034400013490860E16A01EB8101124A02EB810035
:10345000211D00F0BFFA00F0F3FA0B48006868B1D4
:1034600008480068C06AE16A884207D24FF080507D
:1034700009490860BFF34F8FBFF36F8F10BD000085
:1034800038000020280000204400002054000020C4
:10349000400000201005002004ED00E010B516E00B
:1034A00000F0A4FA0C48C068C468201D00F048FA77
:1034B0000A480068401E0949086009480068401E23
:1034C0000749086000F0BCFA204600F00BF80448F9
:1034D00000680028E4D110BDD80500203800002085
:1034E0003400002010B5044694F8510030B9206B28
:1034F00000F0C4FA204600F0C1FA1AE094F8510036
:10350000012803D1204600F0B9FA12E094F85100E6
:10351000022801D1012000E0002050B900BF502056
:1035200080F31188BFF34F8FBFF36F8F00BF00BFD1
:10353000FEE710BD30B54FF40053174800F0070404
:103540002CB1C01D20F00700134C041B1B1B0246AE
:10355000124C22600024114D6C60D018083820F005
:1035600007000F4C206000240D4D2D686C600C4D41
:103570002D682C601146441A4C60094C24680C607C
:10358000084D4C682C60084D4C682C604FF000448E
:10359000064D2C6030BD00000006002064000020B5
:1035A0006C000020740000207000002080000020CB
:1035B00000BFFFF773FF064800680128F9D94FF0F4
:1035C000805004490860BFF34F8FBFF36F8FF0E75F
:1035D0001005002004ED00E02DE9FF5F81460E4656
:1035E0009246DDE90E7B109CAAF10100216B01EBF4
:1035F000800828F0070808F0070008B9012000E05B
:10360000002050B900BF502080F31188BFF34F8FC6
:10361000BFF36F8F00BF00BFFEE786B1002507E054
:10362000715D04F134004155705D00B902E06D1C1C
:10363000102DF5D300BF00214320015502E00020EA
:1036400084F83400072F00D30627E7626764002060
:10365000A064201D00F0A1F904F1180000F09DF90C
:103660002461C7F10700A06164620020E06484F86F
:10367000500049464046039A00F050F92060BBF1E3
:10368000000F01D0CBF80040BDE8FF9F10B500242B
:1036900007E004EB84010F4A02EB810000F070F9AF
:1036A000641C072CF5D30C4800F06AF90B4800F0B5
:1036B00067F90B4800F064F90A4800F061F90A481C
:1036C00000F05EF9044809490860044808490860A8
:1036D00010BD0000100500209C050020B005002052
:1036E000C4050020D8050020EC0500202C00002097
:1036F0003000002010B50146164800E0006803685D
:103700008B42FBD30246436813448B4204D1436887
:103710004C682344436001460A464B6813440468DE
:10372000A34211D10C4C03682468A34208D04B6813
:103730000468646823444B6003681B680B6005E001
:10374000054B1B680B6001E003680B60884200D0EA
:10375000016010BD640000206C0000200A49096867
:10376000096809B9012100E0002121B14FF0FF31C2
:10377000064A116006E004490968C968C868034A36
:1037800041681160704700002C00002058000020A4
:103790000E480068401C08B9012000E0002050B924
:1037A00000BF502080F31188BFF34F8FBFF36F8F9E
:1037B00000BF00BFFEE700BF502080F31188BFF3B9
:1037C0004F8FBFF36F8F00BF00BFFEE78400002064
:1037D0002DE9F04104464FF0000800F03BFA49485B
:1037E000006808B9FFF7A6FE474800682040002897
:1037F00070D1D4B1083404F00700B0B104F0070070
:10380000C0F10800044404F0070008B9012000E0FA
:10381000002050B900BF502080F31188BFF34F8FB4
:10382000BFF36F8F00BF00BFFEE7002C52D03748B8
:10383000006884424ED8364E3046056801E02E4678
:103840002D686868A04202D228680028F7D12D4868
:10385000006885423ED0306800F108082868306072
:103860006868001B102819D92F1907F0070008B93C
:10387000012000E0002050B900BF502080F31188E3
:10388000BFF34F8FBFF36F8F00BF00BFFEE76868C5
:10389000001B78606C603846FFF72CFF1B49686896
:1038A0000968081A19490860084600681949096832
:1038B000884203D2154800681649086012496868B2
:1038C0000968084368600020286013480068401CAD
:1038D0001149086000F0BCFB08F0070008B901209E
:1038E00000E0002050B900BF502080F31188BFF3E2
:1038F0004F8FBFF36F8F00BF00BFFEE74046BDE8AC
:10390000F08100006C00002080000020700000208A
:10391000640000207400002078000020001F4FF099
:1039200080730360001F21F001030360001F034B3D
:103930000360143802602038704700009137000897
:1039400001460A69D1E901309860D1E90103586064
:103950005068884201D18868506000200861106872
:10396000401E106010687047034B0360034B0B60F0
:10397000802313607047000090010020E4010020C4
:1039800000F1080141604FF0FF31816000F1080152
:10399000C160016100210160704700210161704731
:1039A00010B502460B685C1C0CB9106907E002F107
:1039B000080000E04068446824689C42FAD94468E2
:1039C0004C604C68A160886041600A611468641CA6
:1039D000146010BD42684A6093688B6093685960B8
:1039E0009160086103685B1C0360704700BF502052
:1039F00080F31188BFF34F8FBFF36F8F00BF0E4866
:103A00000068401C0C49086008460068012812D173
:103A10000A480068C0B208B9012000E0002050B98F
:103A200000BF502080F31188BFF34F8FBFF36F8F1B
:103A300000BF00BFFEE770478400002004ED00E0F7
:103A40000D48006850B900BF502080F31188BFF3C3
:103A50004F8FBFF36F8F00BF00BFFEE706480068BF
:103A6000401E054908600846006820B9002080F320
:103A7000118800BF00BF70478400002070B5064663
:103A80003546002E44D0083D2C462249606809681E
:103A9000084008B1012000E0002050B900BF5020CC
:103AA00080F31188BFF34F8FBFF36F8F00BF00BF4C
:103AB000FEE7206808B9012000E0002050B900BFEF
:103AC000502080F31188BFF34F8FBFF36F8F00BF7B
:103AD00000BFFEE70F49606809680840C0B1206870
:103AE000B0B90C49606809688843606000F0B2F8BA
:103AF0000949606809680844074908602046FFF7DB
:103B0000F9FD06480068401C0449086000F0A0FA6E
:103B100070BD000080000020700000207C000020AC
:103B200000204FF0E02108618861064800684FF4EA
:103B30007A71B0FBF1F0401E4FF0E02148610720A0
:103B4000086170472400002070B504460025D4B1F8
:103B50001248006808B9012000E0002050B900BFF9
:103B6000502080F31188BFF34F8FBFF36F8F00BFDA
:103B700000BFFEE700F06EF800212046FFF7E8FBEB
:103B800000F066FA05463DB94FF0805004490860E0
:103B9000BFF34F8FBFF36F8F70BD00006000002038
:103BA00004ED00E010B586B000200590049003AA53
:103BB00004A905A8FFF7D8FE0022DDE9041013468A
:103BC000CDE9002102901CA11D48039A00F03EF9A6
:103BD0001C4908600846006808B1012400E0002480
:103BE000012C15D100BF502080F31188BFF34F8FF7
:103BF000BFF36F8F00BF4FF0FF3013490860012003
:103C00001249086000201249086000F071F810E0C5
:103C1000601C08B1012000E0002050B900BF502016
:103C200080F31188BFF34F8FBFF36F8F00BF00BFCA
:103C3000FEE706B010BD000049444C4500000000FE
:103C4000B13500085C00002058000020440000202E
:103C50003C00002002480068401C01490860704791
:103C6000600000201D48006818B101201C49086050
:103C700032E000201A4908601A480068B0FA80F063
:103C8000C0F11F0101EB8100174A52F8200008B172
:103C9000012000E0002050B900BF502080F31188BF
:103CA000BFF34F8FBFF36F8F00BF00BFFEE701EB85
:103CB00081020D4B03EB820042685268426000F1C2
:103CC00008024368934202D14268526842604268E7
:103CD000D268064B1A6000BF7047000060000020E9
:103CE0004C0000204000002010050020280000208B
:103CF0001CB53849084600780190FF200A4610702C
:103D00000846007800909DF8000000F0F0009DF853
:103D10000020904201D1012000E0002050B900BFF6
:103D2000502080F31188BFF34F8FBFF36F8F00BF18
:103D300000BFFEE79DF8000000F05000264A10701A
:103D40000720264A106009E024480068401E234AE4
:103D500010609DF800004006000E00909DF80000E5
:103D600000F080008028EFD01C480068C0F10700F8
:103D7000042801D1012000E0002050B900BF5020EC
:103D800080F31188BFF34F8FBFF36F8F00BF00BF69
:103D9000FEE7124800680002104A106010460088D2
:103DA00000F4E06010600B4A019810700C48006845
:103DB00040F470000A4908600846006840F070400E
:103DC0000860FFF7ADFE002006490860FCF7F2F935
:103DD00000201CBD00E400E0880000208C000020D2
:103DE00020ED00E0840000202DE9FF4F85B08046E3
:103DF00089461746DDE912ABB800FFF7E9FC064635
:103E000056B15420FFF7E4FC04460CB1266304E0ED
:103E10003046FFF733FE00E000248CB1002084F828
:103E20005100CDE900ABCDE902403A464946404653
:103E3000089BFFF7D1FB2046FFF7D6FA012501E0EA
:103E40004FF0FF35284609B0BDE8F08F2DE9F04F5F
:103E500085B00746884691469A46DDE90EB6109C25
:103E60000EB1012000E0002050B900BF502080F3C7
:103E70001188BFF34F8FBFF36F8F00BF00BFFEE706
:103E80000CB1012000E0002050B900BF502080F3A9
:103E90001188BFF34F8FBFF36F8F00BF00BFFEE7E6
:103EA000542003900398542801D1012000E0002001
:103EB00050B900BF502080F31188BFF34F8FBFF37C
:103EC0006F8F00BF00BFFEE700BFB4B1AEB12546A3
:103ED0002C462E63022085F85100002004A9534689
:103EE0004A46CDE900B1CDE9025041463846FFF7D8
:103EF00073FB2846FFF778FA01E00020049004984D
:103F000005B0BDE8F08F00002DE9F0414FF000084A
:103F10004448006800287CD143480068451C42485A
:103F2000056015BB41480068006808B9012000E041
:103F3000002050B900BF502080F31188BFF34F8F8D
:103F4000BFF36F8F00BF00BFFEE7384807683848EF
:103F50000068364908603648076036480068401CEB
:103F600034490860FFF7FAFB00BF33480068854218
:103F70003CD300BF2D480068006808B9012000E06C
:103F8000002020B14FF0FF302B4908602DE027487A
:103F90000068C068C4686668B54202D226480660F8
:103FA00023E0201DFFF7CCFCA06A18B104F1180033
:103FB000FFF7C6FC94F82C10012088401F490968BF
:103FC00008431E490860E16A01EB81011C4A02EBCB
:103FD0008100211DFFF7FEFC1A49E06A0968C96AE1
:103FE0008842C7D34FF00108C4E700BF15480068F6
:103FF000C06A00EB8000124951F82000012801D965
:104000004FF001081048006808B14FF0010805E0C2
:10401000FFE70E480068401C0C4908604046BDE8B8
:10402000F0810000600000203C0000202C000020F7
:1040300030000020500000205800002040000020E8
:1040400010050020280000204C000020480000201F
:1040500070B5002400263648006850B900BF5020D3
:1040600080F31188BFF34F8FBFF36F8F00BF00BF86
:10407000FEE7FFF7BBFC2E480068401E2C49086095
:104080000846006800284FD12A48006800284BD015
:1040900024E02948C068C46804F11800FFF750FC08
:1040A000201DFFF74DFC94F82C1001208840234977
:1040B0000968084321490860E16A01EB8101204A4F
:1040C00002EB8100211DFFF785FC1E49E06A0968AB
:1040D000C96A884202D301201B490860164800685B
:1040E00008B9012000E000200028D2D00CB1FFF771
:1040F00035FB1648056865B100BFFFF705FF10B135
:104100000120114908606D1E002DF6D100200F49D5
:1041100008600D48006838B1012630070C49086076
:10412000BFF34F8FBFF36F8FFFF78AFC304670BD30
:104130006000002038000020C4050020400000205E
:1041400010050020280000204C000020480000201E
:1041500004ED00E04FF47F0C1CEAD0121EBF1CEAF5
:10416000D11392EA0C0F93EA0C0F00F0858090EACD
:10417000010F48BF42F4807240F4000C41F400008B
:104180002CF07F4120F07F4000B58142A2EB03027A
:104190000FF2081CACEB504EC0F100009EF800E09E
:1041A0004FEA4E0E00FB0EFC38BF49004FEA2C1CB4
:1041B00002F5FA020CFB0EF34FEACE1E4FEA112C69
:1041C0004FEAC1210EEB635E42EB22420EFB0CFC78
:1041D0004FEA1C5300FB03114FEA112C4FEA013147
:1041E0000EFB0CFC4FEADC4C00FB0C11C14228BF5B
:1041F00009184CEB03335DF804EB10EB410143EB82
:10420000C250B2F57C0F38BF704729D512F0F00FBD
:104210001CBF00F1C04000F0004070470081828365
:104220008485868788898B8C8D8E8F9192939596C5
:1042300097999A9C9D9FA0A2A3A5A7A8AAACAEB04F
:10424000B2B3B5B7B9BCBEC0C2C5C7C9CCCED1D454
:10425000D7D9DCDFE2E6E9ECF0F3F7FAFE00000084
:104260004FEA400C0CF1807CBCF17E4F28BF7047B8
:10427000B0F1C04000F0AEB890EA010F0CEAD113E3
:1042800048BF42F48072624538BF634507D213F4D9
:104290007F0F16D080EA010000F00040704710B593
:1042A00000F052F8097EFC3E00F005B880EA0100FB
:1042B00000F00040704780EA010000F0004000F08C
:1042C00089B812F47F0F04BF0248704780EA0100EA
:1042D00000F080B80000C07FC10DD1F19E0206DB66
:1042E0004FEA002343F0004323FA02F070470042F4
:1042F00007D54FEA4001B1F1FE4F02D24FF0000066
:10430000704710B500F020F84992248000207047D3
:104310006FEA20007047000010F0004148BF4042A3
:10432000B0FA80F310FA03F2C3F19D030BD051EA07
:10433000C35101EB1220530638BF704700F1010052
:1043400008BF20F0010070470EF1020E2EF0030EA0
:104350005EF8044B244204D44FEA4102B2F17F4F8D
:1043600011D84FEA4003B3F17F4F0CD80ED14FEA7A
:10437000D07CB2F17F4F0CEB4C0C0CF1020C08BF5F
:104380004CEBD17C04E04FF0080C01E04FEAD17C0B
:104390000CEB4C0324FA03F404F00704B4F1040C0E
:1043A00006D20EEB840CBDE810404CF0010C6047C7
:1043B000DFE80CF0070802024FF00040A0F5800093
:1043C00010BD0846420018BFD2F1807288BF00F0CD
:1043D000004010BDFF2141EAD050C00570470000E9
:1043E00098440008F12A00080100000000000000C5
:1043F000800000000000000000000000D44400081D
:104400000D2B00080000000000000000000100006B
:104410000000000000000000C84400085D2A0008F9
:104420000200000000000000000100000000000089
:1044300000000000B8440008612B000800000000E4
:10444000000000000001000000000000000000006B
:10445000A8440008552B0008FFFF000000000000E2
:10446000000100000000000000000000020304053D
:10447000060708090A0B0C0D0E0F101001020000B0
:104480000000000000000102030406070809000004
:1044900000000102030400005461736B5F4C696704
:1044A0006874436F6C6C65005461736B5F65737007
:1044B000383236365F7265005461736B5F657370B6
:1044C000383236365F7365005461736B5F416C61DF
:1044D000726D00005461736B5F5561727450726944
:1044E0006E740000044500080000002090000000E9
:1044F000280100089445000890000020D02B0000FF
:10450000440100080000000000000000000000005E
:10451000000000000000000000000000000000009B
:10452000100000000100000000127A0000000000EE
:10453000000000000000000000000000000000007B
:10454000000000000000000000000000000000006B
:10455000000000000000000000000000000000005B
:10456000000000000000000000000000000000004B
:10457000000000000000000000000000000000003B
:104580000000000000000000AAAAAAAA0000000083
:044590000000000027
:04000005080000ED02
:00000001FF
